:020000040800F2
:1000000000280020150200086502000865020008AB
:100010006502000865020008650200080000000093
:100020000000000000000000000000006502000861
:100030006502000800000000650200086502000873
:1000400065020008650200086502000865020008F4
:100050006502000865020008690200088D020008B8
:10006000B1020008D5020008F90200086502000884
:1000700065020008650200086502000865020008C4
:1000800065020008650200086502000865020008B4
:100090006502000865020008650200081D030008EB
:1000A0006502000865020008650200086502000894
:1000B0006502000865020008650200086502000884
:1000C0006502000865020008650200086502000874
:1000D00065020008B50A0008C90A0008DD0A000820
:1000E000C503000865020008000000006502000862
:1000F0006502000865020008650200086502000844
:100100006502000865020008650200086502000833
:100110006502000865020008650200086502000823
:100120006502000865020008650200086502000813
:1001300010B5054C237833B9044B13B10448AFF321
:1001400000800123237010BD080000200000000083
:10015000380B000808B5034B1BB103490348AFF344
:10016000008008BD000000000C000020380B0008D3
:1001700080B500AF00220549054800F06DFC012262
:100180000249034800F04CFC00BF80BD280000205D
:100190000038014080B586B000AF144B9B69134A0C
:1001A00043F001039361114B9B69104A43F0040330
:1001B00093614FF4E133BB6000233B730023FB7377
:1001C00020233B7400237B73094B7B610023BB73AB
:1001D0000C233B71074800F053FB3B1D19460548B3
:1001E00000F090FA00BF1837BD4680BD00100240F5
:1001F000F90100080038014080B500AFFFF7B8FFF3
:1002000000BF80BD80B500AFFFF7C4FFFFF7F4FF6C
:10021000FCE700000D488546AFF300800C480D490F
:100220000D4A002302E0D458C4500433C4188C4251
:10023000F9D30A4A0A4C002301E013600432A242B7
:10024000FBD300F055FCFFF7DDFFFEE700280020A0
:100250000000002008000020580B000808000020C3
:1002600070000020FEE7000080B500AF054B5B6921
:10027000044A43F001035361034B1B68984700BFD6
:1002800080BD00BF000401403000002080B500AFF9
:10029000054B5B69044A43F002035361034B5B68FF
:1002A000984700BF80BD00BF00040140300000201F
:1002B00080B500AF054B5B69044A43F0040353610A
:1002C000034B9B68984700BF80BD00BF00040140FE
:1002D0003000002080B500AF054B5B69044A43F055
:1002E00008035361034BDB68984700BF80BD00BF24
:1002F000000401403000002080B500AF054B5B6971
:10030000044A43F010035361034B1B69984700BF35
:1003100080BD00BF000401403000002080B500AF68
:10032000264B5B6903F02003002B08D0234B5B694D
:10033000224A43F020035361214B5B6998471F4BCE
:100340005B6903F04003002B08D01C4B5B691B4A20
:1003500043F0400353611A4B9B699847174B5B6905
:1003600003F08003002B08D0144B5B69134A43F061
:1003700080035361124BDB699847104B5B6903F4B0
:100380008073002B08D00D4B5B690C4A43F48073DB
:1003900053610B4B1B6A9847084B5B6903F400736E
:1003A000002B08D0054B5B69044A43F4007353618A
:1003B000034B5B6A984700BF80BD00BF000401404B
:1003C0003000002080B500AF2D4B5B6903F48063E3
:1003D000002B08D02A4B5B69294A43F480635361A0
:1003E000284B9B6A9847264B5B6903F40063002BFC
:1003F00008D0234B5B69224A43F400635361214BCD
:10040000DB6A98471E4B5B6903F48053002B08D0CE
:100410001B4B5B691A4A43F480535361194B1B6BA6
:100420009847174B5B6903F40053002B08D0144B1B
:100430005B69134A43F400535361124B5B6B98475B
:100440000F4B5B6903F48043002B08D00C4B5B69B6
:100450000B4A43F4804353610A4B9B6B9847084B0C
:100460005B6903F40043002B08D0054B5B69044A29
:1004700043F400435361034BDB6B984700BF80BDDF
:10048000000401403000002080B483B000AF034678
:10049000FB80FB88802B42D0802B11DC082B36D0D0
:1004A000082B06DC022B2ED0042B2ED0012B28D0BB
:1004B00047E0202B2FD0402B2FD0102B29D040E00D
:1004C000B3F5006F33D0B3F5006F09DCB3F5007FEF
:1004D00029D0B3F5806F28D0B3F5807F21D030E0EC
:1004E000B3F5005F27D0B3F5005F03DCB3F5805FA1
:1004F0001FD026E0B3F5804F1FD0B3F5004F1ED0BC
:100500001FE000231EE004231CE008231AE00C2354
:1005100018E0102316E0142314E0182312E01C2323
:1005200010E000230EE004230CE008230AE00C2373
:1005300008E0102306E0142304E0182302E01C2343
:1005400000E0002318460C37BD4680BC704790B5CC
:1005500085B000AF786039600023BB600023FB7377
:100560003B681B88FF2B01D87B6801E07B68043364
:10057000BB603B681B881846FFF786FF03461A4698
:100580000F239340DA43BB681B681A40BB681A60AC
:100590003B689B78042B0BD03B689B78052B07D0DE
:1005A0003B689B78062B03D03B689B78072B0ED1CA
:1005B0003B689B78043B9B005AB23B68DB785BB29C
:1005C00013435BB2DBB203F00F03FB732CE03B6819
:1005D0009B78002B03D03B689B78012B07D13B68AD
:1005E0009B789B00DBB203F00F03FB731CE03B68BE
:1005F0009B78082B02D10423FB7315E00823FB73BF
:100600003B689B78022B07D17B68DB683A681288CD
:100610001A437B68DA6007E07B68DB683A68128817
:10062000D2431A407B68DA60FC7B3B681B88184623
:10063000FFF72AFF034604FA03F2BB681B681A435C
:10064000BB681A6000BF1437BD4690BD80B400AFD0
:100650000B4B5B689B0803F00F03012B06D0012BAB
:1006600002D3022B04D005E0064B04E0064B02E067
:10067000054B00E0034B1846BD4680BC704700BFE9
:100680000010024000127A000024F40080B500AF90
:10069000FFF7DCFF0146054B5B681B0903F00F0306
:1006A000034AD35C21FA03F3184680BD00100240D0
:1006B0000000002080B500AFFFF7E8FF0146054BC2
:1006C0005B681B0A03F00703034AD35C21FA03F3B8
:1006D000184680BD001002400000002080B500AF29
:1006E000FFF7D4FF0146054B5B68DB0A03F0070305
:1006F000034AD35C21FA03F3184680BD0010024080
:100700000000002080B584B000AF78603960564AA0
:100710003B6813607B68554A934206D1544B9B69F2
:10072000534A43F48043936114E07B68514A9342F7
:1007300006D14F4BDB694E4A43F40033D36109E0E5
:100740007B684C4A934205D1494BDB69484A43F4E4
:100750008023D3617B68DB6843F400527B68DA60F6
:100760007B68DB683A6812781A437B68DA607B68DA
:10077000DB683A68127A1A437B68DA607B68DB6868
:100780003A68527A1A437B68DA607B681B693A6878
:10079000927A1A437B681A617B685B693A68D27AFD
:1007A0001A437B685A617B68304A934203D1FFF752
:1007B00095FFF86002E0FFF77DFFF8603B685B683B
:1007C0001B01FA68B2FBF3F31A01FB68642101FB19
:1007D00003F13B685B681B01B1FBF3F13B685B68AD
:1007E0001B01F868B0FBF3F3642000FB03F3CB1AA2
:1007F0001B012149A1FB03135B0903F00F03134302
:10080000BB607B68BA689A603B681B7B002B26D074
:100810007B68DB683A68127B1A437B68DA607B6826
:10082000124A934206D1154B1B68144A43F0200329
:10083000136014E07B680F4A934206D10F4B1B688C
:100840000E4A43F04003136009E07B68094A934273
:1008500005D10A4B1B68094A43F08003136000BFAF
:100860001037BD4680BD00BF240000200038014085
:1008700000100240004400401F85EB5104E100E0FD
:1008800080B584B000AF7860604B1B68DB7AFB7387
:100890007B685F4A93423BD14FF400733B81062350
:1008A000BB720123FB7207F1080319465948FFF791
:1008B0004EFE4FF480633B810123BB7207F10803B6
:1008C00019465448FFF743FEFB7B03F40073002BEB
:1008D0000AD04FF400633B810123BB7207F1080388
:1008E00019464C48FFF733FEFB7B03F48073002B63
:1008F00000F087804FF480533B810623BB720123B5
:10090000FB7207F1080319464248FFF720FE78E022
:100910007B68414A934236D104233B810623BB7254
:100920000123FB7207F1080319463A48FFF70FFE4F
:1009300008233B810123BB7207F1080319463548A0
:10094000FFF705FEFB7B03F40073002B09D00123A6
:100950003B810123BB7207F1080319462D48FFF7BD
:10096000F6FDFB7B03F48073002B4AD002233B810E
:100970000623BB720123FB7207F1080319462548C1
:10098000FFF7E5FD3DE07B68234A934239D14FF400
:1009900080633B810623BB720123FB7207F10803CE
:1009A00019461E48FFF7D3FD4FF400633B81012336
:1009B000BB7207F1080319461848FFF7C8FDFB7B17
:1009C00003F40073002B0AD04FF400533B81012342
:1009D000BB7207F1080319461048FFF7B8FDFB7B0F
:1009E00003F48073002B0CD04FF480433B8106232B
:1009F000BB720123FB7207F1080319460548FFF794
:100A0000A6FD00BF1037BD4680BD00BF24000020FA
:100A1000003801400008014000440040000C014043
:100A200080B485B000AFF860B9601346FB71FB7904
:100A3000012B06D100BFFB681B6803F08003002B6D
:100A4000F9D0BB681B88DAB2FB685A6000BF143764
:100A5000BD4680BC7047000080B485B000AFF86030
:100A6000B9601346FB71FB79012B06D100BFFB680F
:100A70001B6803F02003002BF9D00D4B1B685B7A39
:100A8000002B07D1FB685B689BB2DBB29AB2BB68F4
:100A90001A8007E0FB685B689BB203F07F039AB2A1
:100AA000BB681A8000BF1437BD4680BC704700BFCA
:100AB0002400002080B500AF024B1B681B699847DB
:100AC00000BF80BD2400002080B500AF024B1B6832
:100AD0001B69984700BF80BD2400002080B500AF8F
:100AE000024B1B681B69984700BF80BD2400002093
:100AF00070B500250C4E0D4CA41BA410A54209D1C5
:100B000000F01AF800250A4E0A4CA41BA410A542B6
:100B100005D170BD56F8253098470135EEE756F8F7
:100B2000253098470135F2E7500B0008500B0008BC
:100B3000500B0008540B0008F8B500BFF8BC08BC07
:100B40009E467047F8B500BFF8BC08BC9E4670478B
:040B50005501000843
:040B54003101000863
:080B580000000000010203048B
:0400000508000215D8
:00000001FF
